:020000040800F2
:100000000080012071240008552100085B210008B0
:1000100061210008672100086D2100080000000030
:100020000000000000000000000000007321000834
:1000300081210008000000008F2100089D21000898
:10004000C1240008C1240008C1240008C1240008FC
:10005000C1240008C1240008C1240008C1240008EC
:10006000C1240008C1240008C1240008C1240008DC
:10007000C1240008C1240008C1240008C1240008CC
:10008000C1240008C1240008C1240008C1240008BC
:10009000C1240008C1240008C1240008C1240008AC
:1000A000C1240008C1240008C1240008C12400089C
:1000B000C1240008C1240008C1240008C12400088C
:1000C000C1240008C1240008C1240008C12400087C
:1000D000C1240008C1240008C1240008C12400086C
:1000E000C1240008C1240008C1240008C12400085C
:1000F000C1240008C1240008C1240008C12400084C
:10010000C1240008C1240008C1240008C12400083B
:10011000C1240008C1240008C1240008C12400082B
:10012000C1240008C1240008C1240008C12400081B
:10013000C1240008C1240008C1240008C12400080B
:10014000C1240008C1240008C1240008C1240008FB
:10015000C1240008C1240008C1240008C1240008EB
:10016000C1240008C1240008C1240008C1240008DB
:10017000C1240008C1240008C124000800000000B8
:08018000C1240008C12400089D
:1001900010B5054C237833B9044B13B10448AFF3C1
:1001A00000800123237010BDE40100200000000046
:1001B0004093000808B5034B1BB103490348AFF354
:1001C000008008BD00000000E80100204093000806
:1001D00081F0004102E000BF83F0004330B54FEAF8
:1001E00041044FEA430594EA050F08BF90EA020F65
:1001F0001FBF54EA000C55EA020C7FEA645C7FEAF8
:10020000655C00F0E2804FEA5454D4EB5555B8BF1A
:100210006D420CDD2C4480EA020281EA030382EA8B
:10022000000083EA010180EA020281EA0303362D1D
:1002300088BF30BD11F0004F4FEA01314FF4801CF0
:100240004CEA113102D0404261EB410113F0004F02
:100250004FEA03334CEA133302D0524263EB4303B9
:1002600094EA050F00F0A780A4F10104D5F1200E57
:100270000DDB02FA0EFC22FA05F2801841F10001B2
:1002800003FA0EF2801843FA05F359410EE0A5F186
:1002900020050EF1200E012A03FA0EFC28BF4CF0B7
:1002A000020C43FA05F3C01851EBE37101F000456D
:1002B00007D54FF0000EDCF1000C7EEB00006EEB7A
:1002C0000101B1F5801F1BD3B1F5001F0CD3490804
:1002D0005FEA30004FEA3C0C04F101044FEA44525B
:1002E00012F5800F80F09A80BCF1004F08BF5FEAE2
:1002F000500C50F1000041EB045141EA050130BDC2
:100300005FEA4C0C404141EB0101013C28BFB1F5D3
:10031000801FE9D291F0000F04BF01460020B1FA1E
:1003200081F308BF2033A3F10B03B3F120020CDAF1
:100330000C3208DD02F1140CC2F10C0201FA0CF0CF
:1003400021FA02F10CE002F11402D8BFC2F1200C34
:1003500001FA02F120FA0CFCDCBF41EA0C019040EA
:10036000E41AA2BF01EB0451294330BD6FEA040433
:100370001F3C1CDA0C340EDC04F11404C4F120021E
:1003800020FA04F001FA02F340EA030021FA04F330
:1003900045EA030130BDC4F10C04C4F1200220FA87
:1003A00002F001FA04F340EA0300294630BD21FAC5
:1003B00004F0294630BD94F0000F83F4801306BF8B
:1003C00081F480110134013D4EE77FEA645C18BF7F
:1003D0007FEA655C29D094EA050F08BF90EA020F16
:1003E00005D054EA000C04BF1946104630BD91EA0E
:1003F000030F1EBF0021002030BD5FEA545C05D111
:100400004000494128BF41F0004130BD14F580044F
:100410003CBF01F5801130BD01F0004545F0FE41C3
:1004200041F470014FF0000030BD7FEA645C1ABFF8
:10043000194610467FEA655C1CBF0B46024650EA2F
:10044000013406BF52EA033591EA030F41F400215B
:1004500030BD00BF90F0000F04BF0021704730B5E1
:100460004FF4806404F132044FF000054FF00001B6
:1004700050E700BF90F0000F04BF0021704730B577
:100480004FF4806404F1320410F0004548BF40424C
:100490004FF000013EE700BF42004FEAE2014FEAA1
:1004A00031014FEA02701FBF12F07F4393F07F4F7C
:1004B00081F06051704732F07F4208BF704793F07F
:1004C0007F4F04BF41F40021704730B54FF4607492
:1004D00001F0004521F000411CE700BF50EA010295
:1004E00008BF704730B54FF000050AE050EA01023E
:1004F00008BF704730B511F0004502D5404261EBAE
:1005000041014FF4806404F132045FEA915C3FF4EE
:10051000D8AE4FF003025FEADC0C18BF03325FEA8B
:10052000DC0C18BF033202EBDC02C2F1200300FA3C
:1005300003FC20FA02F001FA03FE40EA0E0021FA61
:1005400002F11444BDE600BF70B54FF0FF0C4CF44F
:10055000E06C1CEA11541DBF1CEA135594EA0C0F01
:1005600095EA0C0F00F0DEF82C4481EA030621EA3C
:100570004C5123EA4C5350EA013518BF52EA033577
:1005800041F4801143F4801338D0A0FB02CE4FF029
:100590000005E1FB02E506F00042E0FB03E54FF059
:1005A0000006E1FB03569CF0000F18BF4EF0010E51
:1005B000A4F1FF04B6F5007F64F5407404D25FEA4D
:1005C0004E0E6D4146EB060642EAC62141EA555100
:1005D0004FEAC52040EA5E504FEACE2EB4F1FD0C42
:1005E00088BFBCF5E06F1ED8BEF1004F08BF5FEAC0
:1005F000500E50F1000041EB045170BD06F0004672
:1006000046EA010140EA020081EA0301B4EB5C041E
:10061000C2BFD4EB0C0541EA045170BD41F4801116
:100620004FF0000E013C00F3AB8014F1360FDEBF3B
:10063000002001F0004170BDC4F10004203C35DA17
:100640000C341BDC04F11404C4F1200500FA05F39A
:1006500020FA04F001FA05F240EA020001F000423B
:1006600021F0004110EBD37021FA04F642EB0601B1
:100670005EEA430E08BF20EAD37070BDC4F10C04DB
:10068000C4F1200500FA04F320FA05F001FA04F29F
:1006900040EA020001F0004110EBD37041F100018B
:1006A0005EEA430E08BF20EAD37070BDC4F1200596
:1006B00000FA05F24EEA020E20FA04F301FA05F2FE
:1006C00043EA020321FA04F001F0004121FA04F2A6
:1006D00020EA020000EBD3705EEA430E08BF20EA76
:1006E000D37070BD94F0000F0FD101F000464000B0
:1006F00041EB010111F4801F08BF013CF7D041EA32
:10070000060195F0000F18BF704703F00046520035
:1007100043EB030313F4801F08BF013DF7D043EA06
:100720000603704794EA0C0F0CEA135518BF95EABC
:100730000C0F0CD050EA410618BF52EA4306D1D143
:1007400081EA030101F000414FF0000070BD50EA62
:10075000410606BF1046194652EA430619D094EAEC
:100760000C0F02D150EA013613D195EA0C0F05D1D6
:1007700052EA03361CBF104619460AD181EA03012A
:1007800001F0004141F0FE4141F470014FF00000E2
:1007900070BD41F0FE4141F4780170BD70B54FF07D
:1007A000FF0C4CF4E06C1CEA11541DBF1CEA1355FD
:1007B00094EA0C0F95EA0C0F00F0A7F8A4EB0504DF
:1007C00081EA030E52EA03354FEA013100F08880D6
:1007D0004FEA03334FF0805545EA131343EA12639F
:1007E0004FEA022245EA111545EA10654FEA002654
:1007F0000EF000419D4208BF964244F1FD0404F50D
:10080000407402D25B084FEA3202B61A65EB030568
:100810005B084FEA32024FF480104FF4002CB6EB25
:10082000020E75EB030E22BFB61A754640EA0C00A5
:100830005B084FEA3202B6EB020E75EB030E22BFE5
:10084000B61A754640EA5C005B084FEA3202B6EB26
:10085000020E75EB030E22BFB61A754640EA9C00E5
:100860005B084FEA3202B6EB020E75EB030E22BFB5
:10087000B61A754640EADC0055EA060E18D04FEA73
:10088000051545EA16754FEA06164FEAC30343EA13
:1008900052734FEAC2025FEA1C1CC0D111F4801FE0
:1008A0000BD141EA00014FF000004FF0004CB6E7D9
:1008B00011F4801F04BF01430020B4F1FD0C88BF78
:1008C000BCF5E06F3FF6AFAEB5EB030C04BFB6EB83
:1008D000020C5FEA500C50F1000041EB045170BD76
:1008E0000EF0004E4EEA113114EB5C04C2BFD4EBA3
:1008F0000C0541EA045170BD41F480114FF0000E27
:10090000013C90E645EA060E8DE60CEA135594EAA2
:100910000C0F08BF95EA0C0F3FF43BAF94EA0C0FA5
:100920000AD150EA01347FF434AF95EA0C0F7FF41A
:1009300025AF104619462CE795EA0C0F06D152EA6E
:1009400003353FF4FDAE1046194622E750EA410652
:1009500018BF52EA43067FF4C5AE50EA41047FF463
:100960000DAF52EA43057FF4EBAE12E74FF0FF3CC8
:1009700006E000BF4FF0010C02E000BF4FF0010C99
:100980004DF804CD4FEA410C7FEA6C5C4FEA430C12
:1009900018BF7FEA6C5C1BD001B050EA410C0CBF61
:1009A00052EA430C91EA030F02BF90EA020F0020C3
:1009B000704710F1000F91EA030F58BF994208BF2A
:1009C00090422CBFD8176FEAE37040F001007047E7
:1009D0004FEA410C7FEA6C5C02D150EA013C07D13E
:1009E0004FEA430C7FEA6C5CD6D152EA033CD3D089
:1009F0005DF8040B704700BF8446104662468C4683
:100A00001946634600E000BF01B5FFF7B7FF0028B5
:100A100048BF10F1000F01BD4DF808EDFFF7F4FFDE
:100A20000CBF012000205DF808FB00BF4DF808ED69
:100A3000FFF7EAFF34BF012000205DF808FB00BF8C
:100A40004DF808EDFFF7E0FF94BF012000205DF8AE
:100A500008FB00BF4DF808EDFFF7CEFF94BF012063
:100A600000205DF808FB00BF4DF808EDFFF7C4FF5C
:100A700034BF012000205DF808FB00BF4FEA4102AF
:100A800012F5001215D211D56FF47873B3EB6252E0
:100A900012D94FEAC12343F0004343EA505311F007
:100AA000004F23FA02F018BF404270474FF0000099
:100AB000704750EA013005D111F0004008BF6FF0D7
:100AC000004070474FF00000704700BF4FEA4102FE
:100AD000B2F1E04324BFB3F5001CDCF1FE5C0DD99C
:100AE00001F0004C4FEAC0024CEA5070B2F1004FE6
:100AF00040EB830008BF20F00100704711F0804FE9
:100B000021D113F13872BCBF01F00040704741F4AD
:100B100080114FEA5252C2F11802C2F1200C10FAB1
:100B20000CF320FA02F018BF40F001004FEAC12395
:100B30004FEAD32303FA0CFC40EA0C0023FA02F339
:100B40004FEA4303CCE77FEA625307D150EA01330F
:100B50001EBF4FF0FE4040F44000704701F00040DF
:100B600040F0FE4040F40000704700BF53B94AB95E
:100B7000002908BF00281CBF4FF0FF314FF0FF30A5
:100B800000F074B9ADF1080C6DE904CE00F006F880
:100B9000DDF804E0DDE9022304B070472DE9F047F9
:100BA000089D04468E46002B4DD18A42944669D951
:100BB000B2FA82F252B101FA02F3C2F1200120FA34
:100BC00001F10CFA02FC41EA030E94404FEA1C4882
:100BD000210CBEFBF8F61FFA8CF708FB16E341EA7E
:100BE000034306FB07F199420AD91CEB030306F104
:100BF000FF3080F01F81994240F21C81023E634425
:100C00005B1AA4B2B3FBF8F008FB103344EA0344C8
:100C100000FB07F7A7420AD91CEB040400F1FF33DD
:100C200080F00A81A74240F207816444023840EA1A
:100C30000640E41B00261DB1D4400023C5E9004353
:100C40003146BDE8F0878B4209D9002D00F0EF80D6
:100C50000026C5E9000130463146BDE8F087B3FA09
:100C600083F6002E4AD18B4202D3824200F2F980F1
:100C7000841A61EB030301209E46002DE0D0C5E9F4
:100C8000004EDDE702B9FFDEB2FA82F2002A40F040
:100C90009280A1EB0C014FEA1C471FFA8CFE012643
:100CA000200CB1FBF7F307FB131140EA01410EFBE7
:100CB00003F0884208D91CEB010103F1FF3802D28E
:100CC000884200F2CB804346091AA4B2B1FBF7F088
:100CD00007FB101144EA01440EFB00FEA64508D9AB
:100CE0001CEB040400F1FF3102D2A64500F2BB80E8
:100CF0000846A4EB0E0440EA03409CE7C6F1200737
:100D0000B34022FA07FC4CEA030C20FA07F401FA7C
:100D100006F31C43F9404FEA1C4900FA06F3B1FB05
:100D2000F9F8200C1FFA8CFE09FB181140EA01416A
:100D300008FB0EF0884202FA06F20BD91CEB010107
:100D400008F1FF3A80F08880884240F28580A8F15F
:100D500002086144091AA4B2B1FBF9F009FB1011B1
:100D600044EA014100FB0EFE8E4508D91CEB01014F
:100D700000F1FF346CD28E456AD90238614440EAF2
:100D80000840A0FB0294A1EB0E01A142C846A64672
:100D900056D353D05DB1B3EB080261EB0E0101FAFB
:100DA00007F722FA06F3F1401F43C5E90071002658
:100DB0003146BDE8F087C2F12003D8400CFA02FCAE
:100DC00021FA03F3914001434FEA1C471FFA8CFEBE
:100DD000B3FBF7F007FB10360B0C43EA064300FBAE
:100DE0000EF69E4204FA02F408D91CEB030300F14C
:100DF000FF382FD29E422DD9023863449B1B89B203
:100E0000B3FBF7F607FB163341EA034106FB0EF38B
:100E10008B4208D91CEB010106F1FF3816D28B4238
:100E200014D9023E6144C91A46EA004638E72E4604
:100E3000284605E70646E3E61846F8E64B45A9D2FC
:100E4000B9EB020864EB0C0E0138A3E74646EAE76B
:100E5000204694E74046D1E7D0467BE7023B614419
:100E600032E7304609E76444023842E7704700BF82
:100E700001F0FF01102A2BDB10F0070F08D010F84B
:100E8000013B013A8B422DD010F0070F42B3F6D14F
:100E9000F0B441EA012141EA014122F007047FF068
:100EA00000070023F0E80256083C85EA010586EABF
:100EB000010685FA47F5A3FA87F586FA47F6A5FAFB
:100EC00087F68EB9EED1F0BC01F0FF0102F0070207
:100ED00032B110F8013B013A83EA010313B1F8D1B2
:100EE0000020704701387047002D06BF3546033893
:100EF000073815F0010F07D1013015F4807F02BFCC
:100F0000013015F4C03F0130F0BC0138704700BF1C
:100F1000034613F8012B002AFBD1181A0138704739
:100F20004FEA410C7FEA6C5C02D150EA013C0AD1E5
:100F30004FEA430C7FEA6C5C02D152EA033C02D1D7
:100F40004FF0000070474FF00100704780B483B04D
:100F500000AF786039607B681A887B689B79DB0812
:100F6000DBB29BB212FB03F39AB27B689A807B6878
:100F70009B881A467B685B8802FB03F31A467B68F2
:100F80009A607B683A68DA6000BF0C37BD465DF84E
:100F9000047B704780B582B000AF786039607868B4
:100FA0003B6806330822194605F05EFA3B689A7BD7
:100FB0007B685A723B68DA7B7B689A723B681A7C62
:100FC0007B68DA72002318460837BD4680BD80B5BD
:100FD0008EB000AFF860B9607A6007F114037968E9
:100FE0001846FFF7D7FF034687F82B3097F82B30CA
:100FF000002B02D097F82B3077E07A7FFB681A70CD
:10100000BA7FFB685A707B7F0733002B00DA073307
:10101000DB10DAB2FB68DA70FB68DA78BB7F12FBB0
:1010200003F3DAB2FB689A70FB7F002B0FD1BB6829
:10103000FF2B59D8FB689B781A46BB6802FB03F369
:1010400011337A681A44FB685A6000234DE07B68CC
:101050001233FB6200237B637B6811331B783B6395
:101060003DE0FB6A1B781A46FB6A01331B781B02C2
:1010700013447B62FB6A02331B781A46FB6A033314
:101080001B781B0213443B62BA687B6A9A421CD3EA
:10109000BA683B6A9A4218D8BA687B6AD31A7A6BE4
:1010A00013447B637B6811331B789B001A46FB68F3
:1010B0009B7819467B6B01FB03F3134412337A6868
:1010C0001A44FB685A6000230FE03A6A7B6AD21A1E
:1010D0007B6B134401337B63FB6A0433FB623B6B22
:1010E0005A1E3A63002BBCD1012318463837BD463F
:1010F00080BD000080B582B000AF0346FB800B4688
:10110000BB8013467B80B7F90630124A128893429F
:101110001ADBB7F904300F4A5288934214DBB7F94F
:1011200006300C4A9288934210DCB7F90430094A21
:10113000D28893420ADCB7F90630B7F904107A88EE
:10114000184600F05FFB02E000BF00E000BF083778
:10115000BD4680BD0000002090B5ADF5815D85B035
:1011600000AF07F1300444F8240C0C461046194631
:1011700007F13003224623F8262C07F130030246FC
:1011800023F8282C07F130030A4623F82A2C07F10C
:101190003003194607F1100307F58252126851F81F
:1011A000241C1846FFF713FF034607F5815202F18E
:1011B0000902137007F5815303F109031B78002B13
:1011C00001D00023C0E007F1300313F8203C9AB2AD
:1011D00007F1300323F8182C07F1300313F81F3CF4
:1011E0009AB207F1300323F8162C07F130031022CE
:1011F00003F8122C07F13002083A07F13003183BCC
:1012000011461846FFF7A2FE07F1300353F80C3CD5
:1012100007F5815202F10C021360002307F5815299
:1012200002F10B02137071E0002307F5815202F105
:101230000A02137047E007F1300353F81C3C1B7897
:101240005AB207F5815303F10A031B7803F0070331
:10125000802141FA03F35BB213405BB207F5815280
:1012600002F10802137007F5815303F108031B789C
:10127000002B10D007F5815303F10C031B689A1C57
:1012800007F5815101F10C010A6007F1300232F8D3
:101290002A2C1A800CE007F5815303F10C031B681C
:1012A0009A1C07F5815101F10C010A6000221A8095
:1012B00007F5815303F10A031B78013307F58152C7
:1012C00002F10A02137007F1300313F8203C07F50E
:1012D000815202F10A0212789A42ACD307F130032C
:1012E00053F81C3C07F1300212F81D2C134407F18F
:1012F000300242F81C3C07F5815303F10B031B78C5
:10130000013307F5815202F10B02137007F130032C
:1013100013F81F3C07F5815202F10B0212789A4232
:1013200082D307F13003183B07F1300232F9281C51
:1013300007F1300232F9260C1A4600F05AF807F18C
:10134000300333F8183CDBB2184607F581571437E1
:10135000BD4690BD80B58CB002AFF860084611461E
:101360001A4603467B810B463B811346FB807B89F3
:10137000FB8407F11403396B1846FFF70BFE034695
:1013800087F8253097F82530002B01D000232CE07A
:10139000FB681A1DFA601B683B623B6A0D2B02D08A
:1013A0003B6A0A2B08D100237B81BB7F9AB23B8921
:1013B00013449BB23B8110E0F888B7F90820B7F9D5
:1013C0000A103B6B00930346386AFFF7C5FE0346DD
:1013D0009AB27B8913449BB27B81FB681B68002B0C
:1013E000D6D17A89FB8CD31A9BB218462837BD46D2
:1013F00080BD80B586B000AF03463A60FB800B46E7
:10140000BB803B68DB687B6100237B8220E000239C
:101410003B8215E07B699A1C7A611B88FB81FA8804
:101420003B8A13449BB218B2BA887B8A13449BB29E
:101430001BB2FA891946FFF75DFE3B8A01333B82F6
:101440003B681B883A8A9A42E4D37B8A01337B82C9
:101450003B685B887A8A9A42D9D300BF00BF1837AD
:10146000BD4680BD80B588B000AF07F10C030022F7
:101470001A605A609A60DA601A611E4BDB6C1D4A72
:1014800043F00403D3641B4BDB6C03F00403BB6029
:10149000BB68184BDB6C174A43F00103D364154B50
:1014A000DB6C03F001037B607B68124BDB6C114A41
:1014B00043F00203D3640F4BDB6C03F002033B6089
:1014C0003B68002241F604010B4801F08BFA41F61B
:1014D0000403FB6001233B6100237B610023BB61AC
:1014E00007F10C031946044801F0D2F800BF203779
:1014F000BD4680BD001002400004004880B500AF2A
:101500001B4B1C4A1A601A4B1B4A5A60184B00228C
:101510009A60174B0122DA60154B00221A61144BB6
:1015200000225A61124B00229A61114B0022DA61AB
:101530000F4B00221A620E4801F003FB0346002BFA
:1015400001D000F0F3FB0021094801F063FA0346E3
:10155000002B01D000F0EAFB0021054801F0A5FABC
:101560000346002B01D000F0E1FB00BF80BD00BFAF
:101570000002002000540040EC9C901080B5ACB0FC
:1015800000AF786007F19C0300221A605A609A60ED
:10159000DA601A6107F1140388220021184604F06A
:1015A00071FF7B681B68214A93423AD140237B61DB
:1015B00000237B6607F11403184601F021FF034660
:1015C000002B01D000F0B2FB194BDB6C184A43F042
:1015D0000203D364164BDB6C03F002033B613B69EF
:1015E000C023C7F89C301223C7F8A0300023C7F8E7
:1015F000A4300323C7F8A8300423C7F8AC3007F1A0
:101600009C0319460B4801F043F8094B9B6D084AAF
:1016100043F400139365064B9B6D03F40013FB60CA
:10162000FB6800BFB037BD4680BD00BF005400401E
:10163000001002400004004880B582B000AF0346AD
:10164000FB7100224FF400610C4801F0CBF900223D
:101650004FF48051094801F0C5F9F91D4FF0FF33EF
:101660000122074803F001FC01224FF48051034896
:1016700001F0B8F900BF0837BD4680BD000400483E
:1016800078A2002080B582B000AF0346FB71012232
:101690004FF400610C4801F0A5F900224FF480518D
:1016A000094801F09FF9F91D4FF0FF330122074867
:1016B00003F0DBFB01224FF48051034801F092F963
:1016C00000BF0837BD4680BD0004004878A2002056
:1016D00080B582B000AF0346FB80FB8803F48073C3
:1016E000002B05D0FB88DBB21846FFF7A5FF04E00E
:1016F000FB88DBB21846FFF7C5FF00BF0837BD46C1
:1017000080BD000080B582B000AF002204211748E0
:1017100001F068F9642004F039FC01220421134827
:1017200001F060F9642004F031FC00237B6009E0E3
:101730000F4A7B6832F813301846FFF7C9FF7B6801
:1017400001337B607B684B2BF2D9C82004F01EFC70
:101750001120FFF771FF782004F018FC2920FFF713
:101760006BFF00BF0837BD4680BD00BF00040048C6
:101770003097000880B582B000AF0346FB80FB883D
:101780001B0A9BB2DBB21846FFF77CFFFB88DBB27B
:101790001846FFF777FF00BF0837BD4680BD80B50C
:1017A00084B000AFF860B9607A603B602A20FFF730
:1017B00043FFFB689BB201339BB21846FFF7DAFF89
:1017C000FB689AB27B689BB213449BB21846FFF742
:1017D000D1FF2B20FFF730FFBB689BB202339BB2D7
:1017E0001846FFF7C7FFBB689AB23B689BB2134429
:1017F0009BB201339BB21846FFF7BCFF00BF103706
:10180000BD4680BD80B485B000AFF860B9601346B6
:10181000FB80BA6813469B0013445B011A46FB68C1
:1018200013440549FA8821F8132000BF1437BD4638
:101830005DF8047B704700BF5402002080B500AF04
:101840008023A02200210020FFF7A9FF2C20FFF712
:10185000F3FE01224FF400610C4801F0C3F80022AE
:101860004FF48051094801F0BDF84FF0FF334FF4B9
:1018700020420749074803F0F8FA01224FF480514B
:10188000024801F0AFF800BF80BD00BF000400486F
:101890005402002078A2002080B584B000AF7860A8
:1018A0007B680A2B09D10D23FB7307F10F014FF061
:1018B000FF330122074803F0F9FD391D4FF0FF33D4
:1018C0000122044803F0F2FD012318461037BD46FB
:1018D00080BD00BFE0A2002080B5ADF5876D02AFEE
:1018E00004F0DFFA00F0CEF9FFF7BCFD00F06EFB6C
:1018F00000F012FBFFF702FE00F02EFDFFF702FFE3
:1019000007F56770CC4B00934FF6FF7328220F2129
:10191000FFF720FD07F5427300221946C74803F080
:10192000A6F807F5417300221946C44803F0FBF8F6
:1019300007F58663A3F594731B78194607F586634C
:10194000A3F594735B781A4607F58663A3F5947341
:101950009B7807F54770019300920B46B84A8021A7
:1019600004F0E4FE07F54770B34B00934FF6FF73A6
:1019700014220F21FFF7EEFCB24800F0DDF907F268
:101980002C4383ED000A07F22C43D3ED007AF5EEE9
:10199000C07AF1EE10FA17DD07F22C431868FEF753
:1019A0007BFD02460B46381DCDE90023A64A802167
:1019B00004F0BCFE381DA04B00934FF6FF7332229B
:1019C0000F21FFF7C7FC08E09B4B00934FF6FF7316
:1019D00032220F219D48FFF7BDFC9A4800F048FADB
:1019E00007F5856383ED000A07F58563D3ED007A7B
:1019F000F5EEC07AF1EE10FA19DB07F58563186889
:101A0000FEF74AFD02460B4607F18400CDE90023AC
:101A10008F4A802104F08AFE07F18400864B0093F0
:101A20004FF6FF7328220F21FFF794FC08E0824B4A
:101A300000934FF6FF7328220F218648FFF78AFC98
:101A4000804800F047FA034687F8273497F8273490
:101A5000FF2B12D097F8273407F582707E4A802139
:101A600004F064FE07F58270734B00934FF6FF732A
:101A700050220F21FFF76EFC08E06F4B00934FF6EA
:101A8000FF7350220F217548FFF764FC4FF00003ED
:101A900007F58462136007F58463D3ED007AF5EEF1
:101AA000C07AF1EE10FA31DD07F58463D3ED007AE8
:101AB0009FED6B7AF4EEC77AF1EE10FA0FD507F5C9
:101AC00084631868FEF7E8FC02460B4607F5C2700F
:101AD000CDE90023634A202104F028FE1DE007F52C
:101AE0008463D3ED007A9FED5E7AC7EE876A16EEC7
:101AF000900AFEF7D1FC02460B4607F5C270CDE90D
:101B00000023594A202104F011FE06E007F5C273B4
:101B1000564A2021184604F009FE07F5846393ED28
:101B2000000A484800F04CF907F21C4383ED000A14
:101B300007F21C43D3ED007AF5EE407AF1EE10FA8D
:101B40003AD007F58463D3ED007AF5EEC07AF1EE72
:101B500010FA31DD07F21C43D3ED007AB7EE007ABC
:101B6000F4EEC77AF1EE10FA16D507F21C43D3ED66
:101B7000007A9FED3B7A67EE877A17EE900AFEF7C0
:101B80008BFC02460B4607F50170CDE90023384A6D
:101B9000402104F0CBFD16E007F21C431868FEF765
:101BA0007BFC02460B4607F50170CDE90023314A64
:101BB000402104F0BBFD06E007F501732E4A4021E9
:101BC000184604F0B3FD07F501701B4B00934FF668
:101BD000FF733C220F21FFF7BDFB07F5C270164BC8
:101BE00000934FF6FF7346220F21FFF7B3FB07F573
:101BF0008663A3F594731B78194607F58663A3F5EE
:101C000094735B781A4607F58663A3F594739B7803
:101C10001A4804F01FFD07F22C431868FEF73CFC3D
:101C200002460B46164804F015FDFFF707FE4FF479
:101C30007A7004F0ABF96DE6C897000854A2002052
:101C40005893000800020020AC930008F0930008AD
:101C50004C9400089C940008E49400082C9500081B
:101C600000007A448C950008CC9500081096000876
:101C70004896000880960008B4960008049700086B
:101C80001C97000880B596B000AF07F114034422FA
:101C90000021184604F0F6FB3B4600221A605A6009
:101CA0009A60DA601A614FF4007001F053FB03464A
:101CB000002B01D000F03AF818237B610123BB62AE
:101CC0000123FB6200233B6360237B630223FB63EE
:101CD00001233B6401237B642823BB640723FB644B
:101CE00002233B6502237B6507F11403184602F0CB
:101CF00043F80346002B01D000F018F80F233B6097
:101D000003237B600023BB600023FB6000233B6157
:101D10003B460421184602F00BFC0346002B01D081
:101D200000F004F800BF5837BD4680BD80B400AF56
:101D300072B600BFFEE7000080B58AB004AF7860DD
:101D40004FF0FF3302930223019307F10C0300933A
:101D5000012302226C21786800F082FF0346FB75A4
:101D6000FB7D002B01D0144B19E03B7B1B021AB208
:101D70007B7B1BB213431BB2BB82BB8A1846FEF7A8
:101D800079FB0BA3D3E90023FEF7DEFB02460B46EB
:101D900010461946FEF79AFE03463B613B6907EE83
:101DA000903AB0EE670A1837BD4680BDAFF30080A9
:101DB0007B14AE47E17A143F000080BF00000000B2
:101DC00080B58AB004AF786087ED000A4FF0FF332A
:101DD00002930223019307F10803009301230222D7
:101DE0006C21786800F03CFF0346FB75FB7D002BFF
:101DF00001D01D4B2AE03B7A1B021AB27B7A1BB240
:101E000013431BB2BB82BB8A1846FEF733FB14A3F5
:101E1000D3E90023FEF798FB02460B46104619460D
:101E2000FEF754FE03463B61D7ED007AF5EEC07A2B
:101E3000F1EE10FA09DDD7ED046A97ED007AC6EEEF
:101E4000877AC7ED037AFB6800E0084B07EE903A0B
:101E5000B0EE670A1837BD4680BD00BFAFF3008003
:101E60007B14AE47E17A143F000080BF0000C07FC2
:101E700080B588B004AF78604FF0FF33029302233F
:101E8000019307F108030093012304226C21786871
:101E900000F0E6FE0346002B0ED13B7A1B027A7A55
:101EA000134307EE903AB8EEE77ADFED086AC7EE23
:101EB000267AC7ED037A01E0054BFB60FB6807EE6D
:101EC000903AB0EE670A1037BD4680BD00008043EF
:101ED000000080BF80B588B004AF78600823FB7332
:101EE000FB7B9AB24FF0FF3302930123019307F17A
:101EF0000D03009301236C21786800F0B1FE0346C6
:101F0000BB73BB7B002B01D0FF2300E07B7B18461B
:101F10001037BD4680BD000080B500AF104B114AA0
:101F20001A600F4B00225A600D4B7F229A600C4BB7
:101F3000FF22DA600A4B00221A61094B00225A6123
:101F4000074B00229A61064B0022DA61044802F036
:101F500013FD0346002B01D0FFF7E8FE00BF80BD54
:101F600054A200200028004080B5A4B000AF7860E3
:101F700007F1080388220021184604F083FA7B68E1
:101F80001B68104A934218D14FF40033BB604FF4E2
:101F90000073C7F88C3007F10803184601F030FAD7
:101FA0000346002B01D0FFF7C1FE074BD3F890305A
:101FB000054A43F40043C2F8903000BF9037BD4655
:101FC00080BD00BF002800400010024080B500AF77
:101FD0001B4B1C4A1A601A4B4FF482725A60184B02
:101FE00000229A60164B4FF4E062DA60144B002234
:101FF0001A61134B00225A61114B4FF400729A611F
:102000000F4B1022DA610E4B00221A620C4B002299
:102010005A620B4B00229A62094B0722DA62084B84
:1020200000221A63064B00225A63054802F07AFE2A
:102030000346002B01D0FFF779FE00BF80BD00BF33
:1020400078A200200038004080B58AB000AF7860E8
:1020500007F1140300221A605A609A60DA601A616C
:102060007B681B68254A934244D1254B9B6D244ACB
:1020700043F480439365224B9B6D03F480433B61A3
:102080003B691F4BDB6C1E4A43F00403D3641C4BBB
:10209000DB6C03F00403FB60FB68194BDB6C184A34
:1020A00043F00203D364164BDB6C03F00203BB6006
:1020B000BB6808237B610223BB610023FB61032310
:1020C0003B6205237B6207F1140319460D4800F0BB
:1020D000DFFA4FF480637B610223BB610023FB6165
:1020E00003233B6205237B6207F11403194606486C
:1020F00000F0CEFA00BF2837BD4680BD0038004052
:1021000000100240000800480004004880B483B07A
:1021100000AF0F4B1B6E0E4A43F0010313660C4BCE
:102120001B6E03F001037B607B68094B9B6D084AC3
:1021300043F080539365064B9B6D03F080533B60E7
:102140003B6800BF0C37BD465DF8047B704700BF9D
:102150000010024080B400AFFEE780B400AFFEE79D
:1021600080B400AFFEE780B400AFFEE780B400AFFC
:10217000FEE780B400AF00BFBD465DF8047B70474A
:1021800080B400AF00BFBD465DF8047B704780B4EB
:1021900000AF00BFBD465DF8047B704780B500AF5F
:1021A00003F0D4FE00BF80BD80B400AF0123184609
:1021B000BD465DF8047B704780B582B000AF7860A3
:1021C000396003F007FF034616221A604FF0FF3311
:1021D00018460837BD4680BD80B582B000AF786034
:1021E0004FF0FF317868FFF7E7FFFEE780B586B074
:1021F00000AFF860B9607A6000237B610AE0AFF35A
:1022000000800146BB685A1CBA60CAB21A707B696A
:1022100001337B617A697B689A42F0DB7B68184600
:102220001837BD4680BD80B586B000AFF860B96094
:102230007A6000237B6109E0BB685A1CBA601B7896
:102240001846FFF729FB7B6901337B617A697B685C
:102250009A42F1DB7B6818461837BD4680BD80B4D2
:1022600083B000AF78604FF0FF3318460C37BD469F
:102270005DF8047B704780B483B000AF786039604C
:102280003B684FF400525A60002318460C37BD4695
:102290005DF8047B704780B483B000AF78600123A1
:1022A00018460C37BD465DF8047B704780B485B096
:1022B00000AFF860B9607A60002318461437BD4655
:1022C0005DF8047B7047000080B586B000AF786091
:1022D000144A154BD31A7B617B693B61134B1B6816
:1022E000002B02D1114B124A1A60104B1A687B68FE
:1022F00013443A699A4207D203F06CFE03460C225B
:102300001A604FF0FF3309E0084B1B68FB60074B76
:102310001A687B681344054A1360FB68184618372F
:10232000BD4680BD0080012000040000DCA200202A
:1023300078A3002080B400AF064BD3F88830054A5C
:1023400043F47003C2F8883000BFBD465DF8047BDB
:10235000704700BF00ED00E080B500AF144B154A98
:102360001A60134B4FF4E1325A60114B00229A600D
:102370000F4B0022DA600E4B00221A610C4B0C222C
:102380005A610B4B00229A61094B0022DA61084B1B
:1023900000221A62064B00225A62054803F038F800
:1023A0000346002B01D0FFF7C1FC00BF80BD00BF7A
:1023B000E0A200200044004080B5ACB000AF7860DF
:1023C00007F19C0300221A605A609A60DA601A6171
:1023D00007F1140388220021184604F053F87B68A3
:1023E0001B68214A93423BD102237B6100233B655A
:1023F00007F11403184601F003F80346002B01D03F
:10240000FFF794FC194B9B6D184A43F40033936516
:10241000164B9B6D03F400333B613B69134BDB6C44
:10242000124A43F00103D364104BDB6C03F0010349
:10243000FB60FB680C23C7F89C300223C7F8A03070
:102440000023C7F8A4300323C7F8A8300723C7F830
:10245000AC3007F19C0319464FF0904000F018F99A
:1024600000BFB037BD4680BD0044004000100240B0
:10247000DFF834D0FFF75EFF0C480D490D4A00230A
:1024800002E0D458C4500433C4188C42F9D30A4A29
:102490000A4C002301E013600432A242FBD303F094
:1024A00057FFFFF719FAFEE7008001200000002027
:1024B000E401002054CD0008E401002078A30020AE
:1024C000FEE7000080B485B000AF78607B6803F061
:1024D0000703FB600C4BDB68BB60BA684FF6FF0379
:1024E0001340BB60FB681A02BB68134343F0BF6331
:1024F00043F40033BB60044ABB68D36000BF1437A9
:10250000BD465DF8047B704700ED00E080B400AF8D
:10251000044BDB681B0A03F007031846BD465DF851
:10252000047B704700ED00E080B483B000AF034649
:102530003960FB7197F90730002B0ADB3B68DAB290
:102540000C4997F907301201D2B20B4483F80023EB
:102550000AE03B68DAB20849FB7903F00F03043B59
:102560001201D2B20B441A7600BF0C37BD465DF89B
:10257000047B704700E100E000ED00E080B489B02A
:1025800000AFF860B9607A60FB6803F00703FB6195
:10259000FB69C3F10703042B28BF0423BB61FB695C
:1025A0000433062B02D9FB69033B00E000237B6167
:1025B0004FF0FF32BB6902FA03F3DA43BB681A40FB
:1025C0007B699A404FF0FF317B6901FA03F3D943ED
:1025D0007B680B40134318462437BD465DF8047BE7
:1025E0007047000080B582B000AF78607B68013B27
:1025F000B3F1807F01D301230FE00A4A7B68013BDE
:1026000053600F214FF0FF30FFF78EFF054B002284
:102610009A60044B07221A60002318460837BD460B
:1026200080BD00BF10E000E080B582B000AF7860F0
:102630007868FFF747FF00BF0837BD4680BD80B50B
:1026400086B000AF0346B9607A60FB7300237B61FC
:10265000FFF75CFF78617A68B9687869FFF78EFFE9
:10266000024697F90F3011461846FFF75DFF00BF8D
:102670001837BD4680BD80B582B000AF78607868FD
:10268000FFF7B0FF034618460837BD4680BD00007F
:1026900080B487B000AF7860396000237B617FE150
:1026A0003B681A6801217B6901FA03F31340FB6060
:1026B000FB68002B00F071813B685B6803F003034B
:1026C000012B05D03B685B6803F00303022B30D17C
:1026D0007B689B683B617B695B00032202FA03F322
:1026E000DB433A6913403B613B68DA687B695B0016
:1026F00002FA03F33A6913433B617B683A699A60D3
:102700007B685B683B6101227B6902FA03F3DB4370
:102710003A6913403B613B685B681B0903F00102A7
:102720007B6902FA03F33A6913433B617B683A69B8
:102730005A603B685B6803F00303032B18D17B6886
:10274000DB6A3B6101227B6902FA03F3DB433A69EE
:1027500013403B613B685B68DB0803F001027B6967
:1027600002FA03F33A6913433B617B683A69DA6220
:102770003B685B6803F00303032B17D07B68DB68BF
:102780003B617B695B00032202FA03F3DB433A6996
:1027900013403B613B689A687B695B0002FA03F374
:1027A0003A6913433B617B683A69DA603B685B686E
:1027B00003F00303022B23D17B69DA087B6808321C
:1027C00053F822303B617B6903F007039B000F2223
:1027D00002FA03F3DB433A6913403B613B681A6931
:1027E0007B6903F007039B0002FA03F33A69134382
:1027F0003B617B69DA087B680832396943F822104B
:102800007B681B683B617B695B00032202FA03F370
:10281000DB433A6913403B613B685B6803F00302AA
:102820007B695B0002FA03F33A6913433B617B68FF
:102830003A691A603B685B6803F44033002B00F090
:10284000AC805F4B1B6E5E4A43F0010313665C4B2A
:102850001B6E03F00103BB60BB685A4A7B699B088F
:10286000023352F823303B617B6903F003039B0082
:102870000F2202FA03F3DB433A6913403B617B68A2
:10288000B3F1904F25D07B684F4A93421FD07B68AD
:102890004E4A934219D07B684D4A934213D07B68CD
:1028A0004C4A93420DD07B684B4A934207D07B68D9
:1028B0004A4A934201D106230CE007230AE005238C
:1028C00008E0042306E0032304E0022302E00123DE
:1028D00000E000237A6902F00302920093403A6913
:1028E00013433B6137497B699B0802333A6941F8DE
:1028F00023203B4B9B683B61FB68DB433A691340F9
:102900003B613B685B6803F48013002B03D03A699A
:10291000FB6813433B61324A3B699360304BDB6891
:102920003B61FB68DB433A6913403B613B685B6892
:1029300003F40013002B03D03A69FB6813433B6197
:10294000274A3B69D360264B5B683B61FB68DB43EE
:102950003A6913403B613B685B6803F40033002B2A
:1029600003D03A69FB6813433B611D4A3B695360DE
:102970001B4B1B683B61FB68DB433A6913403B61BF
:102980003B685B6803F48033002B03D03A69FB6833
:1029900013433B61124A3B6913607B6901337B61DE
:1029A0003B681A687B6922FA03F3002B7FF478AE48
:1029B00000BF00BF1C37BD465DF8047B704700BFF9
:1029C00000100240000001400004004800080048D8
:1029D000000C00480010004800140048001800488F
:1029E0000004014080B483B000AF78600B467B8068
:1029F00013467B707B78002B03D07A887B689A61C2
:102A000002E07A887B689A6200BF0C37BD465DF8A9
:102A1000047B704780B483B000AF786039607B6816
:102A200093F84130DBB2202B38D17B6893F84030EB
:102A3000012B01D1022332E07B68012283F8402080
:102A40007B68242283F841207B681B681A687B68B6
:102A50001B6822F001021A607B681B681A687B6899
:102A60001B6822F480521A607B681B6819687B68B7
:102A70001B683A680A431A607B681B681A687B689F
:102A80001B6842F001021A607B68202283F8412013
:102A90007B68002283F84020002300E002231846D0
:102AA0000C37BD465DF8047B704780B485B000AF3D
:102AB000786039607B6893F84130DBB2202B39D1E4
:102AC0007B6893F84030012B01D1022333E07B680F
:102AD000012283F840207B68242283F841207B6810
:102AE0001B681A687B681B6822F001021A607B6809
:102AF0001B681B68FB60FB6823F47063FB603B682A
:102B00001B02FA681343FB607B681B68FA681A6053
:102B10007B681B681A687B681B6842F001021A60B8
:102B20007B68202283F841207B68002283F84020C4
:102B3000002300E0022318461437BD465DF8047BED
:102B4000704780B582B000AF78607B68002B01D100
:102B5000012381E07B6893F84130DBB2002B06D182
:102B60007B68002283F840207868FEF707FD7B68C9
:102B7000242283F841207B681B681A687B681B68E5
:102B800022F001021A607B685A687B681B6822F099
:102B900070621A617B681B689A687B681B6822F404
:102BA00000429A607B68DB68012B07D17B689A68DA
:102BB0007B681B6842F400429A6006E07B689A6872
:102BC0007B681B6842F404429A607B68DB68022BD6
:102BD00004D17B681B684FF400625A607B681B68F5
:102BE0005B687A68126843F0007343F400435360F3
:102BF0007B681B68DA687B681B6822F40042DA6035
:102C00007B681A697B685B6942EA03017B689B69A0
:102C10001A027B681B680A43DA607B68D9697B68A3
:102C20001A6A7B681B680A431A607B681B681A680B
:102C30007B681B6842F001021A607B6800225A64BC
:102C40007B68202283F841207B6800221A637B681E
:102C5000002283F84220002318460837BD4680BD75
:102C600080B588B002AFF860084611461A460346A0
:102C70007B810B463B811346FB80FB6893F8413018
:102C8000DBB2202B40F0FD803B6A002B02D0BB8CD6
:102C9000002B05D1FB684FF400725A640123F1E068
:102CA000FB6893F84030012B01D10223EAE0FB6876
:102CB000012283F8402003F05DF978617B6900937D
:102CC000192301224FF40041F86800F05BF9034634
:102CD000002B01D00123D5E0FB68222283F841209C
:102CE000FB68402283F84220FB6800225A64FB689C
:102CF0003A6A5A62FB68BA8C5A85FB6800225A63AA
:102D0000F8883A8979897B690193BB6A0093034605
:102D1000F86800F0BFF80346002B05D0FB680022DE
:102D200083F840200123ADE0FB685B8D9BB2FF2B55
:102D30000ED9FB68FF221A85FB681B8DDAB27989F0
:102D4000524B00934FF08073F86800F0C3FA0FE025
:102D5000FB685B8D9AB2FB681A85FB681B8DDAB243
:102D600079894A4B00934FF00073F86800F0B2FA8B
:102D70007B690093BB6A00220421F86800F002F925
:102D80000346002B01D001237CE0FB681B685A6AD4
:102D9000FB685B6AD2B21A70FB685B6A5A1CFB68FC
:102DA0005A62FB681B8D013B9AB2FB681A85FB686F
:102DB0005B8D9BB2013B9AB2FB685A85FB685B8DC9
:102DC0009BB2002B34D0FB681B8D002B30D17B696C
:102DD0000093BB6A00228021F86800F0D3F8034614
:102DE000002B01D001234DE0FB685B8D9BB2FF2BD4
:102DF0000ED9FB68FF221A85FB681B8DDAB2798930
:102E0000002300934FF08073F86800F063FA0FE03E
:102E1000FB685B8D9AB2FB681A85FB681B8DDAB282
:102E20007989002300934FF00073F86800F052FA9C
:102E3000FB685B8D9BB2002B9AD17A69B96AF868FE
:102E400000F020F90346002B01D001231AE0FB68B3
:102E50001B682022DA61FB681B685968FB681A68E6
:102E60000B4B0B405360FB68202283F84120FB682A
:102E7000002283F84220FB68002283F840200023D0
:102E800000E0022318461837BD4680BD00240080AC
:102E900000E800FE80B586B002AFF8600846114633
:102EA0001A4603467B810B463B811346FB80FB8819
:102EB000DAB27989204B00930023F86800F00AFA0F
:102EC000FA69B969F86800F09DF80346002B01D053
:102ED00001232CE0FB88012B05D13B89DAB2FB688A
:102EE0001B689A6215E03B891B0A9BB2DAB2FB6849
:102EF0001B689A62FA69B969F86800F083F80346BA
:102F0000002B01D0012312E03B89DAB2FB681B6879
:102F10009A62FB690093BB6900224021F86800F0C7
:102F200031F80346002B01D0012300E000231846AE
:102F30001037BD4680BD00BF0020008080B483B044
:102F400000AF78607B681B689B6903F00203022B6B
:102F500003D17B681B6800229A627B681B689B69AF
:102F600003F00103012B07D07B681B689A697B681B
:102F70001B6842F001029A6100BF0C37BD465DF844
:102F8000047B704780B584B000AFF860B9603B60E7
:102F90001346FB7122E03B68B3F1FF3F1ED002F005
:102FA000E9FF0246BB69D31A3A689A4202D33B68EA
:102FB000002B13D1FB685B6C43F02002FB685A6462
:102FC000FB68202283F84120FB68002283F842201E
:102FD000FB68002283F8402001230FE0FB681B6898
:102FE0009A69BB681340BA689A420CBF0123002358
:102FF000DBB21A46FB799A42CDD00023184610372F
:10300000BD4680BD80B584B000AFF860B9607A601D
:103010002CE07A68B968F86800F070F80346002B75
:1030200001D001232AE0BB68B3F1FF3F1ED002F0BC
:10303000A1FF02467B68D31ABA689A4202D3BB68E2
:10304000002B13D1FB685B6C43F02002FB685A64D1
:10305000FB68202283F84120FB68002283F842208D
:10306000FB68002283F84020012307E0FB681B680F
:103070009B6903F00203022BCBD1002318461037C3
:10308000BD4680BD80B584B000AFF860B9607A609D
:1030900028E07A68B968F86800F030F80346002B39
:1030A00001D0012326E002F065FF02467B68D31AB7
:1030B000BA689A4202D3BB68002B13D1FB685B6CE1
:1030C00043F02002FB685A64FB68202283F8412009
:1030D000FB68002283F84220FB68002283F840202E
:1030E000012307E0FB681B689B6903F02003202B8A
:1030F000CFD1002318461037BD4680BD80B58AB0B9
:1031000000AFF860B9607A60002387F82730FB6869
:103110001B689B69BB6100233B627B68FB61BB69E9
:1031200003F01003002B75D0FB681B681022DA61D6
:1031300056E0BB68B3F1FF3F52D002F01BFF0246DE
:10314000FB69D31ABA689A4202D3BB68002B47D1F5
:10315000FB681B685B6803F480437B61FB6893F842
:103160004230FB74FB681B689B6903F40043B3F5B2
:10317000004F2ED17B69B3F5804F2AD0FB7C202BEA
:1031800027D0FB681B685A68FB681B6842F48042C2
:103190005A6002F0EFFEF8611BE002F0EBFE02461F
:1031A000FB69D31A192B14D9FB685B6C43F020021E
:1031B000FB685A64FB68202283F84120FB680022E8
:1031C00083F84220FB68002283F84020012387F81F
:1031D0002730FB681B689B6903F02003202BDCD1A0
:1031E000FB681B689B6903F02003202B03D097F832
:1031F0002730002B9DD097F82730002B03D1FB6898
:103200001B682022DA613B6A43F004033B6201231E
:1032100087F82730FB681B689B69BB61BB6903F4B7
:103220008073002B0BD03B6A43F001033B62FB68C9
:103230001B684FF48072DA61012387F82730BB697D
:1032400003F48063002B0BD03B6A43F008033B621E
:10325000FB681B684FF48062DA61012387F827302E
:10326000BB6903F40073002B0BD03B6A43F00203ED
:103270003B62FB681B684FF40072DA61012387F838
:10328000273097F82730002B1CD0F868FFF756FE40
:10329000FB681B685968FB681A680D4B0B4053604C
:1032A000FB685A6C3B6A1A43FB685A64FB6820222D
:1032B00083F84120FB68002283F84220FB6800224B
:1032C00083F8402097F8273018462837BD4680BD40
:1032D00000E800FE80B487B000AFF8607B600B466A
:1032E0007B8113467B727B89C3F309027B7A1B04C3
:1032F00003F47F031A437B681A433B6A134323F0AA
:1033000000437B61FB681B685A683B6A5B0D03F4F2
:103310008061084B0B43DB4302EA0301FB681B6837
:103320007A690A435A6000BF1C37BD465DF8047BCA
:10333000704700BFFF63FF0380B400AF044B1B68FE
:1033400003F4C0631846BD465DF8047B704700BFB8
:103350000070004080B485B000AF78607B68B3F542
:10336000007F30D1234B1B6803F4C063B3F5007FAB
:1033700038D0204B1B6823F4C0631E4A43F400730B
:1033800013601D4B1B68322202FB03F31B4AA2FB96
:1033900003239B0C0133FB6002E0FB68013BFB60F5
:1033A000144B5B6903F48063B3F5806F02D1FB6853
:1033B000002BF2D10F4B5B6903F48063B3F5806F90
:1033C00010D103230FE00B4B1B6803F4C063B3F56C
:1033D000806F07D0074B1B6823F4C063054A43F492
:1033E00080631360002318461437BD465DF8047BE4
:1033F000704700BF007000400800002083DE1B43C0
:1034000080B586B000AF78600023FB740023BB74E6
:103410007B681B6803F40063002B41D07B685B6E04
:10342000B3F5400F2AD0B3F5400F24D8B3F5000F01
:1034300008D0B3F5000F1ED8002B0AD0B3F5800FCB
:1034400010D018E0864BDB68854A43F48033D360A4
:1034500015E07B6804330021184600F0BBFA0346F0
:10346000FB740CE07B6820330021184600F0A6FBBB
:103470000346FB7403E00123FB7400E000BFFB7C08
:10348000002B0BD1764BD3F8883023F440027B68B5
:103490005B6E73491343C1F8883001E0FB7CBB7459
:1034A0007B681B6803F48053002B41D07B689B6EC4
:1034B000B3F1407F2AD0B3F1407F24D8B3F1007F2D
:1034C00008D0B3F1007F1ED8002B0AD0B3F1807F63
:1034D00010D018E0624BDB68614A43F48033D3605C
:1034E00015E07B6804330021184600F073FA0346A8
:1034F000FB740CE07B6820330021184600F05EFB73
:103500000346FB7403E00123FB7400E000BFFB7C77
:10351000002B0BD1524BD3F8883023F040727B68DC
:103520009B6E4F491343C1F8883001E0FB7CBB74AC
:103530007B681B6803F40033002B00F0A08000239D
:103540007B74474B9B6D03F08053002B01D101230B
:1035500000E00023002B0DD0414B9B6D404A43F00F
:10356000805393653E4B9B6D03F08053BB60BB68FB
:1035700001237B743B4B1B683A4A43F4807313600E
:1035800002F0F8FCF86009E002F0F4FC0246FB6887
:10359000D31A022B02D90323FB7405E0314B1B68BD
:1035A00003F48073002BEFD0FB7C002B5CD12C4B01
:1035B000D3F8903003F440737B617B69002B1FD0FC
:1035C0007B68D3F884307A699A4219D0244BD3F8B7
:1035D000903023F440737B61214BD3F89030204A24
:1035E00043F48033C2F890301D4BD3F890301C4A1E
:1035F00023F48033C2F89030194A7B69C2F89030C6
:103600007B6903F00103002B16D002F0B3FCF860D5
:103610000BE002F0AFFC0246FB68D31A41F288329D
:10362000934202D90323FB7406E00D4BD3F890308C
:1036300003F00203002BECD0FB7C002B0CD1084BD9
:10364000D3F8903023F440727B68D3F88430044977
:103650001343C1F8903009E0FB7CBB7406E000BF67
:103660000010024000700040FB7CBB747B7C012B8F
:1036700005D19E4B9B6D9D4A23F0805393657B68DB
:103680001B6803F00103002B0AD0984BD3F8883055
:1036900023F003027B689B6B94491343C1F8883085
:1036A0007B681B6803F00203002B0AD08F4BD3F812
:1036B000883023F00C027B68DB6B8C491343C1F824
:1036C00088307B681B6803F00403002B0AD0874B0B
:1036D000D3F8883023F030027B681B6C8349134396
:1036E000C1F888307B681B6803F00803002B0AD000
:1036F0007E4BD3F8883023F0C0027B685B6C7B493B
:103700001343C1F888307B681B6803F01003002B5B
:103710000AD0764BD3F8883023F440727B689B6CD8
:1037200072491343C1F888307B681B6803F020039B
:10373000002B0AD06D4BD3F8883023F440627B68AD
:10374000DB6C6A491343C1F888307B681B6803F45B
:103750000073002B0AD0654BD3F8883023F4402245
:103760007B68DB6D61491343C1F888307B681B6857
:1037700003F48063002B0AD05C4BD3F8883023F429
:1037800040127B681B6E59491343C1F888307B682F
:103790001B6803F04003002B0AD0544BD3F8883049
:1037A00023F440527B681B6D50491343C1F88830A5
:1037B0007B681B6803F08003002B0AD04B4BD3F8C7
:1037C000883023F440427B685B6D48491343C1F85D
:1037D00088307B681B6803F48073002B0AD0434B4E
:1037E000D3F8883023F440327B689B6D3F49134304
:1037F000C1F888307B681B6803F40053002B28D085
:103800003A4BD3F8883023F040627B68DB6E37494F
:103810001343C1F888307B68DB6EB3F1006F06D1CB
:10382000324BDB68314A43F48013D36011E07B688C
:10383000DB6EB3F1806F0CD17B6804330121184635
:1038400000F0C8F80346FB74FB7C002B01D0FB7C26
:10385000BB747B681B6803F40023002B28D0234B28
:10386000D3F8883023F040627B681B6F1F491343F5
:10387000C1F888307B681B6FB3F1006F06D11B4B1A
:10388000DB681A4A43F48013D36011E07B681B6F36
:10389000B3F1806F0CD17B6804330121184600F02E
:1038A00099F80346FB74FB7C002B01D0FB7CBB74B6
:1038B0007B681B6803F48023002B2BD00B4BD3F8C1
:1038C000883023F040627B685B6F08491343C1F87E
:1038D00088307B685B6FB3F1006F09D1034BDB6805
:1038E000024A43F48013D36014E000BF001002408A
:1038F0007B685B6FB3F1806F0CD17B68043301216F
:10390000184600F067F80346FB74FB7C002B01D0DF
:10391000FB7CBB747B681B6803F48043002B2FD0B7
:103920002B4BD3F8883023F040527B689B6F28499B
:103930001343C1F888307B689B6FB3F1805F0DD172
:103940007B6804330221184600F044F80346FB74F8
:10395000FB7C002B14D0FB7CBB7411E07B689B6F5D
:10396000B3F1005F0CD17B6820330221184600F0D0
:1039700025F90346FB74FB7C002B01D0FB7CBB7458
:103980007B681B6803F40043002B0AD0104BD3F86C
:10399000883023F080427B68DB6F0D491343C1F808
:1039A00088307B681B6803F48033002B0BD0084BF6
:1039B000D3F8883023F000427B68D3F88030044984
:1039C0001343C1F88830BB7C18461837BD4680BD0C
:1039D0000010024080B584B000AF786039600023E9
:1039E000FB73754BDB6803F00303002B18D0724B9D
:1039F000DB6803F003027B681B689A420DD17B6889
:103A00001B68002B09D06C4BDB681B0903F0070314
:103A10005A1C7B685B689A4247D00123FB7344E0E1
:103A20007B681B68032B18D0032B25D8012B02D0F1
:103A3000022B09D020E0604B1B6803F00203002B2F
:103A40001DD10123FB731AE05B4B1B6803F48063F9
:103A5000002B16D10123FB7313E0574B1B6803F4B3
:103A60000033002B0FD1544B1B6803F48023002B31
:103A700009D10123FB7306E00123FB7304E000BFBF
:103A800002E000BF00E000BFFB7B002B0DD14A4BE2
:103A9000DB6823F073027B6819687B685B68013B15
:103AA0001B010B4344491343CB60FB7B002B7DD1AF
:103AB000414B1B68404A23F08063136002F05AFABE
:103AC000B86009E002F056FA0246BB68D31A022B2E
:103AD00002D90323FB7305E0374B1B6803F0006337
:103AE000002BEFD1FB7B002B60D13B68002B11D169
:103AF000314B1B6923F41F3323F440737A689268B7
:103B000011027A68D268120952040A432A491343FF
:103B10000B6127E03B68012B12D1274B1B6923F473
:103B2000C00323F4FE437A68926811027A6812692E
:103B30005208013A52050A431F4913430B6111E031
:103B40001D4B1B6923F0C06323F4FE437A6892681F
:103B500011027A6852695208013A52060A4316491C
:103B600013430B61144B1B68134A43F080631360CB
:103B700002F000FAB86009E002F0FCF90246BB6806
:103B8000D31A022B02D90323FB7305E00A4B1B68EF
:103B900003F00063002BEFD0FB7B002B06D1064B1C
:103BA0001A697B689B69044913430B61FB7B1846C8
:103BB0001037BD4680BD00BF0010024080B584B004
:103BC00000AF786039600023FB736A4BDB6803F059
:103BD0000303002B18D0674BDB6803F003027B68FC
:103BE0001B689A420DD17B681B68002B09D0614B82
:103BF000DB681B0903F007035A1C7B685B689A4269
:103C000047D00123FB7344E07B681B68032B18D06B
:103C1000032B25D8012B02D0022B09D020E0554BD5
:103C20001B6803F00203002B1DD10123FB731AE074
:103C3000504B1B6803F48063002B16D10123FB73E8
:103C400013E04C4B1B6803F40033002B0FD1494B9E
:103C50001B6803F48023002B09D10123FB7306E0CA
:103C60000123FB7304E000BF02E000BF00E000BFDF
:103C7000FB7B002B0DD13F4BDB6823F073027B688D
:103C800019687B685B68013B1B010B43394913438F
:103C9000CB60FB7B002B67D1364B1B68354A23F08A
:103CA0008053136002F066F9B86009E002F062F92F
:103CB0000246BB68D31A022B02D90323FB7305E02B
:103CC0002C4B1B6803F00053002BEFD1FB7B002B28
:103CD0004AD13B68002B11D1264B5B6923F41F337B
:103CE00023F440737A68926811027A68D2681209E4
:103CF00052040A431F4913434B6111E01D4B5B699A
:103D000023F0C06323F4FE437A68926811027A6854
:103D100012695208013A52060A43164913434B618D
:103D2000144B1B68134A43F08053136002F022F9CE
:103D3000B86009E002F01EF90246BB68D31A022BF4
:103D400002D90323FB7305E00A4B1B6803F0005301
:103D5000002BEFD0FB7B002B06D1064B5A697B680A
:103D60005B69044913434B61FB7B18461037BD4622
:103D700080BD00BF0010024080B588B000AF786001
:103D80007B68002B01D10123CAE3974B9B6803F0AA
:103D90000C03BB61944BDB6803F003037B617B681E
:103DA0001B6803F01003002B00F0E480BB69002BBC
:103DB00007D0BB690C2B40F08B807B69012B40F056
:103DC0008780894B1B6803F00203002B05D07B68BA
:103DD0009B69002B01D10123A2E37B681A6A824B05
:103DE0001B6803F00803002B04D07F4B1B6803F013
:103DF000F00305E07C4BD3F894301B0903F0F0038B
:103E0000934223D27B681B6A184600F055FD034697
:103E1000002B01D0012383E3734B1B68724A43F0EC
:103E200008031360704B1B6823F0F0027B681B6A69
:103E30006D4913430B606C4B5B6823F47F427B68D6
:103E4000DB691B02684913434B6025E0664B1B6826
:103E5000654A43F008031360634B1B6823F0F002CC
:103E60007B681B6A604913430B605F4B5B6823F4FC
:103E70007F427B68DB691B025B4913434B60BB6974
:103E8000002B09D17B681B6A184600F015FD03461C
:103E9000002B01D0012343E300F04AFC0246524BC1
:103EA0009B681B0903F00F035049CB5C03F01F0311
:103EB00022FA03F34E4A13604E4B1B68184602F079
:103EC00009F80346FB73FB7B002B52D0FB7B27E3F7
:103ED0007B689B69002B32D0434B1B68424A43F0FE
:103EE0000103136002F046F8386108E002F042F87E
:103EF00002463B69D31A022B01D9032310E33A4B44
:103F00001B6803F00203002BF0D0374B1B68364AC6
:103F100043F008031360344B1B6823F0F0027B6806
:103F20001B6A314913430B602F4B5B6823F47F42BC
:103F30007B68DB691B022C4913434B601AE02A4B58
:103F40001B68294A23F00103136002F013F838615B
:103F500008E002F00FF802463B69D31A022B01D9A0
:103F60000323DDE2204B1B6803F00203002BF0D19A
:103F700000E000BF7B681B6803F00103002B74D0D6
:103F8000BB69082B05D0BB690C2B0ED17B69032BB9
:103F90000BD1154B1B6803F40033002B64D07B68F6
:103FA0005B68002B60D10123BAE27B685B68B3F5E4
:103FB000803F06D10C4B1B680B4A43F480331360DF
:103FC00026E07B685B68B3F5A02F15D1064B1B6814
:103FD000054A43F480231360034B1B68024A43F4F1
:103FE0008033136014E000BF0010024080C7000857
:103FF000080000200C000020A04B1B689F4A23F4FF
:10400000803313609D4B1B689C4A23F4802313600C
:104010007B685B68002B13D001F0ACFF386108E0CF
:1040200001F0A8FF02463B69D31A642B01D9032390
:1040300076E2924B1B6803F40033002BF0D014E0BF
:1040400001F098FF386108E001F094FF02463B69F7
:10405000D31A642B01D9032362E2884B1B6803F453
:104060000033002BF0D100E000BF7B681B6803F039
:104070000203002B60D0BB69042B05D0BB690C2B5D
:1040800019D17B69022B16D17C4B1B6803F480632A
:10409000002B05D07B68DB68002B01D101233FE2B8
:1040A000764B5B6823F0F8527B681B691B067349EB
:1040B00013434B6040E07B68DB68002B23D06F4BE1
:1040C0001B686E4A43F48073136001F053FF38613C
:1040D00008E001F04FFF02463B69D31A022B01D9D9
:1040E00003231DE2654B1B6803F48063002BF0D0B3
:1040F000624B5B6823F0F8527B681B691B065F49C3
:1041000013434B6018E05D4B1B685C4A23F48073DB
:10411000136001F02FFF386108E001F02BFF024629
:104120003B69D31A022B01D90323F9E1534B1B68D6
:1041300003F48063002BF0D17B681B6803F0080355
:10414000002B3CD07B685B69002B1CD04B4BD3F819
:1041500094304A4A43F00103C2F8943001F00AFF58
:10416000386108E001F006FF02463B69D31A022BD2
:1041700001D90323D4E1414BD3F8943003F0020377
:10418000002BEFD01BE03D4BD3F894303B4A23F09B
:104190000103C2F8943001F0EDFE386108E001F04F
:1041A000E9FE02463B69D31A022B01D90323B7E18A
:1041B000324BD3F8943003F00203002BEFD17B682D
:1041C0001B6803F00403002B00F0A6800023FB779C
:1041D0002A4B9B6D03F08053002B0DD1274B9B6D19
:1041E000264A43F080539365244B9B6D03F0805324
:1041F000BB60BB680123FB77214B1B6803F4807312
:10420000002B18D11E4B1B681D4A43F480731360AA
:1042100001F0B0FE386108E001F0ACFE02463B69F7
:10422000D31A022B01D903237AE1154B1B6803F43F
:104230008073002BF0D07B689B68012B08D10F4B5B
:10424000D3F890300D4A43F00103C2F8903029E0D2
:104250007B689B68052B15D1084BD3F89030074A33
:1042600043F00403C2F89030044BD3F89030034A73
:1042700043F00103C2F8903014E000BF0010024088
:10428000007000409C4BD3F890309B4A23F0010310
:10429000C2F89030984BD3F89030974A23F004033B
:1042A000C2F890307B689B68002B16D001F062FE4C
:1042B00038610AE001F05EFE02463B69D31A41F222
:1042C0008832934201D903232AE18B4BD3F89030F3
:1042D00003F00203002BEDD015E001F04BFE386136
:1042E0000AE001F047FE02463B69D31A41F28832E8
:1042F000934201D9032313E17F4BD3F8903003F0AD
:104300000203002BEDD1FB7F012B05D17A4B9B6D76
:10431000794A23F0805393657B689B6A002B00F0F9
:10432000FE807B689B6A022B40F0D080724BDB687A
:104330007B617B6903F003027B68DB6A9A4230D1C0
:104340007B6903F070027B681B6B013B1B019A4287
:1043500027D17B6903F4FE427B685B6B1B029A42A8
:104360001FD17B6903F400337A68926B072A14BF6C
:1043700001220022D2B2934213D17B6903F4C0021E
:104380007B68DB6B5B08013B5B059A4209D17B696B
:1043900003F0C0627B681B6C5B08013B5B069A42C2
:1043A0006ED0BB690C2B69D0534B1B6803F0806344
:1043B000002B05D1504B1B6803F08053002B01D01C
:1043C0000123ADE04C4B1B684B4A23F08073136014
:1043D00001F0D0FD386108E001F0CCFD02463B69F8
:1043E000D31A022B01D903239AE0434B1B6803F035
:1043F0000073002BF0D1404BDA68404B13407A68D1
:10440000D16A7A68126B013A120111437A68526BD1
:10441000120211437A68D26B5208013A52051143D5
:104420007A68126C5208013A520611437A68926B0C
:10443000120952040A4330491343CB602E4B1B68C8
:104440002D4A43F0807313602B4BDB682A4A43F0FC
:104450008073D36001F08EFD386108E001F08AFDC1
:1044600002463B69D31A022B01D9032358E0224BA1
:104470001B6803F00073002BF0D050E001234FE0E5
:104480001D4B1B6803F00073002B48D11A4B1B68AF
:10449000194A43F080731360174BDB68164A43F0E8
:1044A0008073D36001F066FD386108E001F062FDC1
:1044B00002463B69D31A022B01D9032330E00E4B8D
:1044C0001B6803F00073002BF0D028E0BB690C2BB5
:1044D00023D0094B1B68084A23F08073136001F056
:1044E00049FD38610CE001F045FD02463B69D31AF5
:1044F000022B05D9032313E0001002408C809DF9A4
:10450000094B1B6803F00073002BECD1064BDA68F3
:104510000549064B1340CB6001E0012300E0002376
:1045200018462037BD4680BD00100240FCFFEEFE5D
:1045300080B584B000AF786039607B68002B01D112
:104540000123E7E0754B1B6803F007033A689A42C2
:1045500010D9724B1B6823F0070270493B68134364
:104560000B606E4B1B6803F007033A689A4201D058
:104570000123CFE07B681B6803F00203002B10D0FF
:104580007B689A68664B9B6803F0F0039A4208D9EF
:10459000634B9B6823F0F0027B689B686049134380
:1045A0008B607B681B6803F00103002B4CD07B6899
:1045B0005B68032B07D15A4B1B6803F00073002B79
:1045C00021D10123A6E07B685B68022B07D1544B05
:1045D0001B6803F40033002B15D101239AE07B689C
:1045E0005B68002B07D14E4B1B6803F00203002BC6
:1045F00009D101238EE04A4B1B6803F48063002B32
:1046000001D1012386E0464B9B6823F003027B68BF
:104610005B68434913438B6001F0ACFCF8600AE02F
:1046200001F0A8FC0246FB68D31A41F2883293429B
:1046300001D903236EE03A4B9B6803F00C027B68C0
:104640005B689B009A42EBD17B681B6803F0020316
:10465000002B10D07B689A68314B9B6803F0F00305
:104660009A4208D22E4B9B6823F0F0027B689B682D
:104670002B4913438B60294B1B6803F007033A68EF
:104680009A4210D2254B1B6823F0070223493B684E
:1046900013430B60214B1B6803F007033A689A42EF
:1046A00001D0012336E07B681B6803F00403002B74
:1046B00008D01B4B9B6823F4E0627B68DB681849D9
:1046C00013438B607B681B6803F00803002B09D041
:1046D000134B9B6823F460527B681B69DB00104915
:1046E00013438B6000F024F802460D4B9B681B09B6
:1046F00003F00F030B49CB5C03F01F0322FA03F313
:10470000094A1360094B1B68184601F0E3FB034696
:10471000FB72FB7A18461037BD4680BD0020024070
:104720000010024080C70008080000200C00002094
:1047300080B489B000AF0023FB610023BB613E4B16
:104740009B6803F00C033B613B4BDB6803F0030306
:10475000FB603B69002B05D03B690C2B21D1FB682A
:10476000012B1ED1344B1B6803F00803002B07D12B
:10477000314BD3F894301B0A03F00F03FB6105E0C3
:104780002D4B1B681B0903F00F03FB612B4AFB69D0
:1047900052F82330FB613B69002B0DD1FB69BB61F3
:1047A0000AE03B69042B02D1254BBB6104E03B6965
:1047B000082B01D1234BBB613B690C2B34D11E4B21
:1047C000DB6803F00303BB60BB68022B03D0BB684C
:1047D000032B03D005E01A4B7B6105E0194B7B618D
:1047E00002E0FB697B6100BF134BDB681B0903F030
:1047F000070301337B60104BDB681B0A03F07F0368
:104800007A6903FB02F27B68B2FBF3F37B610A4B2C
:10481000DB685B0E03F0030301335B003B607A69E6
:104820003B68B2FBF3F3BB61BB6918462437BD4656
:104830005DF8047B704700BF0010024098C7000875
:104840000024F40000127A0080B400AF034B1B6810
:104850001846BD465DF8047B704700BF0800002085
:1048600080B500AFFFF7F0FF0246064B9B681B0ABE
:1048700003F007030449CB5C03F01F0322FA03F3A0
:10488000184680BD0010024090C7000880B500AFF8
:10489000FFF7DAFF0246064B9B68DB0A03F00703CB
:1048A0000449CB5C03F01F0322FA03F3184680BDD2
:1048B0000010024090C7000880B586B000AF786055
:1048C00000233B612A4B9B6D03F08053002B03D0E8
:1048D000FEF732FD786114E0254B9B6D244A43F0CE
:1048E00080539365224B9B6D03F08053FB60FB6804
:1048F000FEF722FD78611E4B9B6D1D4A23F080530D
:1049000093657B69B3F5007F0BD17B68802B19D948
:104910007B68A02B02D902233B6113E001233B619A
:1049200010E07B68802B02D903233B610AE07B689F
:10493000802B02D102233B6104E07B68702B01D104
:1049400001233B610B4B1B6823F0070209493B69BC
:1049500013430B60074B1B6803F007033A699A4245
:1049600001D0012300E0002318461837BD4680BD62
:10497000001002400020024080B584B000AF786093
:104980000123FB737B68002B6CD07B6893F821308C
:10499000DBB2002B06D17B68002283F820207868E8
:1049A000FDF7E2FA7B68022283F821207B681B680E
:1049B000CA225A627B681B6853225A62786800F0E8
:1049C00025F90346FB73FB7B002B4BD17B681B68EF
:1049D0009B687A68126823F4E00323F04003936035
:1049E0007B681B6899687B685A687B681B691A43F7
:1049F0007B689B691A437B681B680A439A607B68E3
:104A00001B687A68D2681A617B681B6819697B68C1
:104A10009B681A047B681B680A431A61786800F077
:104A200029F90346FB73FB7B002B1BD17B681B68BA
:104A3000DA6C7B681B6822F00302DA647B681B680F
:104A4000D96C7B68DA697B685B691A437B681B6891
:104A50000A43DA647B681B68FF225A627B68012282
:104A600083F82120FB7B18461037BD4680BD80B5FA
:104A700086B000AFF860B9607A60FB681B689A6A1C
:104A8000BB685A60FB681B681B69C3F30E02BB68F6
:104A90009A60FB681B681B6803F07F3323F0FE43BA
:104AA0007B617B691B0CDBB203F03F03DAB2BB68AE
:104AB0001A707B691B0ADBB203F07F03DAB2BB68B2
:104AC0005A707B69DBB203F07F03DAB2BB689A707D
:104AD0007B699B0DDBB203F00103DAB2BB68DA70CD
:104AE0007B68002B1AD1BB681B78184600F000F9D0
:104AF00003461A46BB681A70BB685B78184600F01C
:104B0000F7F803461A46BB685A70BB689B7818468C
:104B100000F0EEF803461A46BB689A700023184668
:104B20001837BD4680BD80B586B000AFF860B9606B
:104B30007A60FB681B685B6823F07F4323F0C00347
:104B40007B617B691B0CDAB2BB68DA707B691B0A7C
:104B5000DBB203F01F03DAB2BB685A707B69DBB2C9
:104B600003F03F03DAB2BB689A707B695B0BDBB280
:104B700003F00703DAB2BB681A707B68002B1AD106
:104B8000BB68DB78184600F0B3F803461A46BB68EA
:104B9000DA70BB685B78184600F0AAF803461A463C
:104BA000BB685A70BB689B78184600F0A1F80346B2
:104BB0001A46BB689A70002318461837BD4680BD58
:104BC00080B584B000AF78607B681B68DA687B686A
:104BD0001B6822F0A002DA6001F0CCF9F86009E06D
:104BE00001F0C8F90246FB68D31AB3F57A7F01D900
:104BF000032307E07B681B68DB6803F02003002BBE
:104C0000EED0002318461037BD4680BD80B584B075
:104C100000AF78600023FB737B681B68DB6803F0E0
:104C20004003002B20D17B681B684FF0FF32DA6015
:104C300001F0A0F9B8600DE001F09CF90246BB68F4
:104C4000D31AB3F57A7F05D90323FB737B6803225C
:104C500083F821207B681B68DB6803F04003002B8E
:104C600002D1FB7B032BE7D1FB7B18461037BD46F7
:104C700080BD000080B584B000AF78600023FB7376
:104C80001A4BDB68194A23F08003D360174B9B68EB
:104C900003F02003002B0CD17868FFF791FF034647
:104CA000002B1ED07B68032283F821200323FB7393
:104CB00017E00E4B9B680D4A23F020039360786841
:104CC000FFF77EFF0346002B05D07B68032283F8A5
:104CD00021200323FB73054B9B68044A43F0200308
:104CE0009360FB7B18461037BD4680BD002800400E
:104CF00080B485B000AF0346FB71FB791B09DBB2C2
:104D00001A46920013445B00FB73FB7903F00F0318
:104D1000DAB2FB7B1344DBB218461437BD465DF8AC
:104D2000047B704780B584B000AF78607B68002B4F
:104D300001D1012395E07B685B6A002B08D17B6879
:104D40005B68B3F5827F09D07B680022DA6105E0F9
:104D50007B6800221A617B6800225A617B6800220E
:104D60009A627B6893F85D30DBB2002B06D17B68DA
:104D7000002283F85C207868FDF766F97B680222E0
:104D800083F85D207B681B681A687B681B6822F0CB
:104D900040021A607B68DB68B3F5E06F02D900233C
:104DA000FB6002E04FF48053FB607B68DB68B3F587
:104DB000706F07D07B68DB68B3F5E06F02D07B686B
:104DC00000229A627B685B6803F482727B689B684E
:104DD00003F404431A437B681B6903F002031A437C
:104DE0007B685B6903F001031A437B689B6903F4EA
:104DF00000731A437B68DB6903F038031A437B684E
:104E00001B6A03F0800342EA03017B689B6A03F498
:104E100000527B681B680A431A607B689B691B0C05
:104E200003F004027B685B6A03F010031A437B689B
:104E30005B6B03F008031A437B68DB6803F4706361
:104E400042EA0301FB6803F480527B681B680A4353
:104E50005A607B6800221A667B68012283F85D2015
:104E6000002318461037BD4680BD80B588B000AF1E
:104E7000F860B9603B601346FB800023FB77FB685A
:104E800093F85C30012B01D1022358E1FB68012229
:104E900083F85C2001F06EF8B861FB88FB82FB6848
:104EA00093F85D30DBB2012B02D00223FB773DE1AA
:104EB000BB68002B02D0FB88002B02D10123FB77BB
:104EC00034E1FB68032283F85D20FB6800221A6648
:104ED000FB68BA689A63FB68FA889A87FB68FA8865
:104EE000DA87FB6800221A64FB680022A3F84420DA
:104EF000FB680022A3F84620FB6800221A65FB68C5
:104F00000022DA64FB689B68B3F5004F0FD1FB68A1
:104F10001B681A68FB681B6822F040021A60FB6875
:104F20001B681A68FB681B6842F480421A60FB68C1
:104F30001B681B6803F04003402B07D0FB681B680D
:104F40001A68FB681B6842F040021A60FB68DB6865
:104F5000B3F5E06F4BD9FB685B68002B02D0FB8A8E
:104F6000012B3ED1FB689B6B1A88FB681B68DA60DB
:104F7000FB689B6B9A1CFB689A63FB68DB8F9BB298
:104F8000013B9AB2FB68DA872BE0FB681B689B68E1
:104F900003F00203022B12D1FB689B6B1A88FB689B
:104FA0001B68DA60FB689B6B9A1CFB689A63FB6862
:104FB000DB8F9BB2013B9AB2FB68DA8711E000F00D
:104FC000D9FF0246BB69D31A3A689A4203D83B68B4
:104FD000B3F1FF3F02D13B68002B02D10323FB77E3
:104FE000A4E0FB68DB8F9BB2002BCED17CE0FB689A
:104FF0005B68002B02D0FB8A012B70D1FB68DB8F32
:105000009BB2012B12D9FB689B6B1A88FB681B684B
:10501000DA60FB689B6B9A1CFB689A63FB68DB8F0A
:105020009BB2023B9AB2FB68DA8758E0FB689A6B46
:10503000FB681B680C3312781A70FB689B6B5A1C58
:10504000FB689A63FB68DB8F9BB2013B9AB2FB68FB
:10505000DA8744E0FB681B689B6803F00203022BBD
:105060002BD1FB68DB8F9BB2012B12D9FB689B6BAA
:105070001A88FB681B68DA60FB689B6B9A1CFB68EC
:105080009A63FB68DB8F9BB2023B9AB2FB68DA87BC
:1050900025E0FB689A6BFB681B680C3312781A706A
:1050A000FB689B6B5A1CFB689A63FB68DB8F9BB2A7
:1050B000013B9AB2FB68DA8711E000F05BFF024621
:1050C000BB69D31A3A689A4203D83B68B3F1FF3FF1
:1050D00002D13B68002B02D10323FB7726E0FB685B
:1050E000DB8F9BB2002BB5D1BA693968F86800F044
:1050F00049F90346002B02D0FB6820221A66FB68A0
:105100009B68002B0AD100233B61FB681B68DB68AE
:105110003B61FB681B689B683B613B69FB681B6EDE
:10512000002B02D00123FB7700E000BFFB680122C7
:1051300083F85D20FB68002283F85C20FB7F184623
:105140002037BD4680BD000080B588B000AFF86054
:10515000B9603B601346FB7100F00CFF0246BB6A6E
:105160009B1A3A681344FB6100F004FFB861394BA5
:105170001B685B011B0DFA6902FB03F37B6154E0C2
:105180003B68B3F1FF3F50D000F0F4FE0246BB692C
:10519000D31AFA699A4202D9FB69002B3DD1FB6808
:1051A0001B685A68FB681B6822F0E0025A60FB68C3
:1051B0005B68B3F5827F11D1FB689B68B3F5004F44
:1051C00004D0FB689B68B3F5806F07D1FB681B6850
:1051D0001A68FB681B6822F040021A60FB689B6A31
:1051E000B3F5005F0FD1FB681B681A68FB681B688A
:1051F00022F400521A60FB681B681A68FB681B687F
:1052000042F400521A60FB68012283F85D20FB68BB
:10521000002283F85C20032317E07B69002B01D177
:105220000023FB617B69013B7B61FB681B689A681B
:10523000BB681340BA689A420CBF01230023DBB25B
:105240001A46FB799A429BD1002318462037BD4667
:1052500080BD00BF0800002080B58AB000AFF860B4
:10526000B9607A603B600023FB7500F083FE024664
:105270003B6B9B1A3A6813447B6200F07BFE3862FA
:10528000FB681B680C33FB613D4B1A6813469B009F
:105290001344DA00D31A1B0D7A6A02FB03F3BB61D5
:1052A00060E0BB68B3F5C06F07D17B68002B04D109
:1052B000FB691B78DBB2FB75FB7D3B68B3F1FF3FFD
:1052C00050D000F057FE02463B6AD31A7A6A9A42DF
:1052D00002D97B6A002B3DD1FB681B685A68FB68CA
:1052E0001B6822F0E0025A60FB685B68B3F5827FBE
:1052F00011D1FB689B68B3F5004F04D0FB689B6835
:10530000B3F5806F07D1FB681B681A68FB681B68E0
:1053100022F040021A60FB689B6AB3F5005F0FD170
:10532000FB681B681A68FB681B6822F400521A604D
:10533000FB681B681A68FB681B6842F400521A601D
:10534000FB68012283F85D20FB68002283F85C2063
:10535000032310E0BB69002B01D100237B62BB69F2
:10536000013BBB61FB681B689A68BB6813407A68A5
:105370009A4296D1002318462837BD4680BD00BF0B
:105380000800002080B586B002AFF860B9607A608E
:105390007B680093BB6800224FF4C051F868FFF7A8
:1053A0005BFF0346002B07D0FB681B6E43F0200217
:1053B000FB681A66032327E07B680093BB68002222
:1053C0008021F868FFF7C0FE0346002B07D0FB687A
:1053D0001B6E43F02002FB681A66032314E07B680F
:1053E0000093BB6800224FF4C061F868FFF734FFF8
:1053F0000346002B07D0FB681B6E43F02002FB68BE
:105400001A66032300E0002318461037BD4680BD0E
:1054100080B582B000AF78607B68002B01D101239A
:1054200040E07B689B6F002B06D17B68002283F8ED
:1054300074207868FCF7C0FF7B6824229A677B6839
:105440001B681A687B681B6822F001021A60786882
:1054500000F0C0F80346012B01D1012322E07B6854
:105460005B6A002B02D0786800F06CFB7B681B68DD
:105470005A687B681B6822F490425A607B681B68FC
:105480009A687B681B6822F02A029A607B681B6816
:105490001A687B681B6842F001021A60786800F0A5
:1054A000F3FB034618460837BD4680BD80B58AB079
:1054B00002AFF860B9603B601346FB80FB689B6FEE
:1054C000202B40F08280BB68002B02D0FB88002B91
:1054D00001D101237AE0FB6893F87430012B01D1EC
:1054E000022373E0FB68012283F87420FB6800222A
:1054F000C3F88020FB6821229A6700F03BFD7861A9
:10550000FB68FA88A3F85020FB68FA88A3F85220B9
:10551000FB689B68B3F5805F08D1FB681B69002BB3
:1055200004D10023FB61BB68BB6103E0BB68FB6186
:105530000023BB61FB68002283F874202DE03B68E8
:1055400000937B6900228021F86800F0E6FB0346A7
:10555000002B01D0032339E0FB69002B0BD1BB6981
:105560001A88FB681B68C2F3080292B21A85BB69ED
:105570000233BB6108E0FB691A78FB681B6892B2D2
:105580001A85FB690133FB61FB68B3F852309BB2AB
:10559000013B9AB2FB68A3F85220FB68B3F8523083
:1055A0009BB2002BCBD13B6800937B69002240214A
:1055B000F86800F0B2FB0346002B01D0032305E09E
:1055C000FB6820229A67002300E002231846203758
:1055D000BD4680BD2DE9B04F8AB000AFF860002312
:1055E00087F82230FB689A68FB681B691A43FB68DE
:1055F0005B691A43FB68DB6913437B62FB681B68CA
:105600001A68A44B1340FA681268796A0B43136056
:10561000FB681B685B6823F44051FB68DA68FB6831
:105620001B680A435A60FB689B697B62FB681B68C6
:10563000994A934204D0FB681B6A7A6A13437B62DF
:10564000FB681B689B6823F43061FB681B687A6AFF
:105650000A439A60FB681B68904A934226D1904B9C
:10566000D3F8883003F00303032B1BD801A252F8B0
:1056700023F000BF85560008955600088D56000897
:105680009D560008012387F8233016E1022387F88E
:10569000233012E1042387F823300EE1082387F832
:1056A00023300AE1102387F8233006E1FB681B68EA
:1056B0007C4A934238D17A4BD3F8883003F00C03FC
:1056C0000C2B2DD801A252F823F000BF015700087F
:1056D00021570008215700082157000811570008DA
:1056E00021570008215700082157000809570008D2
:1056F00021570008215700082157000819570008B2
:10570000002387F82330D8E0022387F82330D4E041
:10571000042387F82330D0E0082387F82330CCE037
:10572000102387F82330C8E0FB681B685E4A934269
:1057300025D15B4BD3F8883003F03003302B16D0E3
:10574000302B18D8202B0AD0202B14D8002B02D0B5
:10575000102B08D00FE0002387F82330ADE00223A0
:1057600087F82330A9E0042387F82330A5E0082335
:1057700087F82330A1E0102387F823309DE0FB68F1
:105780001B684A4A934225D1454BD3F8883003F031
:10579000C003C02B16D0C02B18D8802B0AD0802B6A
:1057A00014D8002B02D0402B08D00FE0002387F83C
:1057B000233082E0022387F823307EE0042387F839
:1057C00023307AE0082387F8233076E0102387F827
:1057D000233072E0FB681B68354A93422AD1304B74
:1057E000D3F8883003F44073B3F5407F1AD0B3F593
:1057F000407F1BD8B3F5007F0CD0B3F5007F15D8E0
:10580000002B03D0B3F5807F08D00FE0002387F88A
:10581000233052E0022387F823304EE0042387F838
:1058200023304AE0082387F8233046E0102387F826
:10583000233042E0FB681B68174A93423AD1184B69
:10584000D3F8883003F44063B3F5406F1AD0B3F552
:10585000406F1BD8B3F5006F0CD0B3F5006F15D8AF
:10586000002B03D0B3F5806F08D00FE0002387F83A
:10587000233022E0022387F823301EE0042387F838
:1058800023301AE0082387F8233016E0102387F826
:10589000233012E0F369FFEF008000400038014040
:1058A000001002400044004000480040004C00400E
:1058B00000500040102387F82330FB681B689F4A84
:1058C00093427AD197F82330082B24D801A252F8BA
:1058D00023F000BFF95800081759000801590008C3
:1058E00017590008075900081759000817590008E8
:1058F000175900080F590008FEF7B2FFF86110E0D1
:105900008F4BFB610DE0FEF713FFF86109E04FF4E8
:105910000043FB6105E00023FB61012387F822308F
:1059200000BFFB69002B00F0FB80FB685A68134640
:105930005B001344FA699A4205D3FB685B681B035A
:10594000FA699A4203D9012387F82230E8E0FB691B
:1059500000221C4615464FF000024FF000032B02B8
:1059600043EA14632202F96849684908002088461E
:10597000814612EB080A43EB090BFB685B680022C7
:105980003B607A60D7E9002350465946FBF7EEF8B2
:1059900002460B461346BB61BB69B3F5407F08D393
:1059A000BB69B3F5801F04D2FB681B68BA69DA6073
:1059B000B6E0012387F82230B2E0FB68DB69B3F57B
:1059C000004F5ED197F82330082B28D801A252F857
:1059D00023F000BFF9590008015A0008095A0008CD
:1059E0001F5A00080F5A00081F5A00081F5A0008C3
:1059F0001F5A0008175A0008FEF732FFF86114E03A
:105A0000FEF744FFF86110E04D4BFB610DE0FEF73F
:105A10008FFEF86109E04FF40043FB6105E00023CD
:105A2000FB61012387F8223000BFFB69002B77D090
:105A3000FB695A00FB685B685B081A44FB685B689B
:105A4000B2FBF3F3BB61BB690F2B16D9BB69B3F58E
:105A5000803F12D2BB699BB223F00F03FB82BB696C
:105A60005B089BB203F007039AB2FB8A1343FB82E5
:105A7000FB681B68FA8ADA6052E0012387F822305B
:105A80004EE097F82330082B27D801A252F823F0D4
:105A9000B55A0008BD5A0008C55A0008DB5A00086C
:105AA000CB5A0008DB5A0008DB5A0008DB5A000812
:105AB000D35A0008FEF7D4FEF86114E0FEF7E6FEC4
:105AC000F86110E01E4BFB610DE0FEF731FEF8615E
:105AD00009E04FF40043FB6105E00023FB61012373
